{
    "_format": "hh-sol-artifact-1",
    "contractName": "MyEpicNFT",
    "sourceName": "contracts/MyEpicNFT.sol",
    "abi": [
        {
            "inputs": [],
            "stateMutability": "nonpayable",
            "type": "constructor"
        },
        {
            "anonymous": false,
            "inputs": [
                {
                    "indexed": true,
                    "internalType": "address",
                    "name": "owner",
                    "type": "address"
                },
                {
                    "indexed": true,
                    "internalType": "address",
                    "name": "approved",
                    "type": "address"
                },
                {
                    "indexed": true,
                    "internalType": "uint256",
                    "name": "tokenId",
                    "type": "uint256"
                }
            ],
            "name": "Approval",
            "type": "event"
        },
        {
            "anonymous": false,
            "inputs": [
                {
                    "indexed": true,
                    "internalType": "address",
                    "name": "owner",
                    "type": "address"
                },
                {
                    "indexed": true,
                    "internalType": "address",
                    "name": "operator",
                    "type": "address"
                },
                {
                    "indexed": false,
                    "internalType": "bool",
                    "name": "approved",
                    "type": "bool"
                }
            ],
            "name": "ApprovalForAll",
            "type": "event"
        },
        {
            "anonymous": false,
            "inputs": [
                {
                    "indexed": true,
                    "internalType": "address",
                    "name": "from",
                    "type": "address"
                },
                {
                    "indexed": true,
                    "internalType": "address",
                    "name": "to",
                    "type": "address"
                },
                {
                    "indexed": true,
                    "internalType": "uint256",
                    "name": "tokenId",
                    "type": "uint256"
                }
            ],
            "name": "Transfer",
            "type": "event"
        },
        {
            "anonymous": false,
            "inputs": [
                {
                    "indexed": false,
                    "internalType": "address",
                    "name": "sender",
                    "type": "address"
                },
                {
                    "indexed": false,
                    "internalType": "uint256",
                    "name": "tokenId",
                    "type": "uint256"
                }
            ],
            "name": "newNFTMinted",
            "type": "event"
        },
        {
            "inputs": [
                {
                    "internalType": "address",
                    "name": "to",
                    "type": "address"
                },
                {
                    "internalType": "uint256",
                    "name": "tokenId",
                    "type": "uint256"
                }
            ],
            "name": "approve",
            "outputs": [],
            "stateMutability": "nonpayable",
            "type": "function"
        },
        {
            "inputs": [
                {
                    "internalType": "address",
                    "name": "owner",
                    "type": "address"
                }
            ],
            "name": "balanceOf",
            "outputs": [
                {
                    "internalType": "uint256",
                    "name": "",
                    "type": "uint256"
                }
            ],
            "stateMutability": "view",
            "type": "function"
        },
        {
            "inputs": [
                {
                    "internalType": "uint256",
                    "name": "tokenId",
                    "type": "uint256"
                }
            ],
            "name": "getApproved",
            "outputs": [
                {
                    "internalType": "address",
                    "name": "",
                    "type": "address"
                }
            ],
            "stateMutability": "view",
            "type": "function"
        },
        {
            "inputs": [
                {
                    "internalType": "address",
                    "name": "owner",
                    "type": "address"
                },
                {
                    "internalType": "address",
                    "name": "operator",
                    "type": "address"
                }
            ],
            "name": "isApprovedForAll",
            "outputs": [
                {
                    "internalType": "bool",
                    "name": "",
                    "type": "bool"
                }
            ],
            "stateMutability": "view",
            "type": "function"
        },
        {
            "inputs": [],
            "name": "mintNFT",
            "outputs": [],
            "stateMutability": "nonpayable",
            "type": "function"
        },
        {
            "inputs": [],
            "name": "name",
            "outputs": [
                {
                    "internalType": "string",
                    "name": "",
                    "type": "string"
                }
            ],
            "stateMutability": "view",
            "type": "function"
        },
        {
            "inputs": [
                {
                    "internalType": "uint256",
                    "name": "tokenId",
                    "type": "uint256"
                }
            ],
            "name": "ownerOf",
            "outputs": [
                {
                    "internalType": "address",
                    "name": "",
                    "type": "address"
                }
            ],
            "stateMutability": "view",
            "type": "function"
        },
        {
            "inputs": [
                {
                    "internalType": "address",
                    "name": "from",
                    "type": "address"
                },
                {
                    "internalType": "address",
                    "name": "to",
                    "type": "address"
                },
                {
                    "internalType": "uint256",
                    "name": "tokenId",
                    "type": "uint256"
                }
            ],
            "name": "safeTransferFrom",
            "outputs": [],
            "stateMutability": "nonpayable",
            "type": "function"
        },
        {
            "inputs": [
                {
                    "internalType": "address",
                    "name": "from",
                    "type": "address"
                },
                {
                    "internalType": "address",
                    "name": "to",
                    "type": "address"
                },
                {
                    "internalType": "uint256",
                    "name": "tokenId",
                    "type": "uint256"
                },
                {
                    "internalType": "bytes",
                    "name": "_data",
                    "type": "bytes"
                }
            ],
            "name": "safeTransferFrom",
            "outputs": [],
            "stateMutability": "nonpayable",
            "type": "function"
        },
        {
            "inputs": [
                {
                    "internalType": "address",
                    "name": "operator",
                    "type": "address"
                },
                {
                    "internalType": "bool",
                    "name": "approved",
                    "type": "bool"
                }
            ],
            "name": "setApprovalForAll",
            "outputs": [],
            "stateMutability": "nonpayable",
            "type": "function"
        },
        {
            "inputs": [
                {
                    "internalType": "bytes4",
                    "name": "interfaceId",
                    "type": "bytes4"
                }
            ],
            "name": "supportsInterface",
            "outputs": [
                {
                    "internalType": "bool",
                    "name": "",
                    "type": "bool"
                }
            ],
            "stateMutability": "view",
            "type": "function"
        },
        {
            "inputs": [],
            "name": "symbol",
            "outputs": [
                {
                    "internalType": "string",
                    "name": "",
                    "type": "string"
                }
            ],
            "stateMutability": "view",
            "type": "function"
        },
        {
            "inputs": [
                {
                    "internalType": "uint256",
                    "name": "tokenId",
                    "type": "uint256"
                }
            ],
            "name": "tokenURI",
            "outputs": [
                {
                    "internalType": "string",
                    "name": "",
                    "type": "string"
                }
            ],
            "stateMutability": "view",
            "type": "function"
        },
        {
            "inputs": [
                {
                    "internalType": "address",
                    "name": "from",
                    "type": "address"
                },
                {
                    "internalType": "address",
                    "name": "to",
                    "type": "address"
                },
                {
                    "internalType": "uint256",
                    "name": "tokenId",
                    "type": "uint256"
                }
            ],
            "name": "transferFrom",
            "outputs": [],
            "stateMutability": "nonpayable",
            "type": "function"
        }
    ],
    "bytecode": "0x60806040526040518061016001604052806101318152602001620048226101319139600790805190602001906200003892919062000fd8565b506040518061024001604052806040518060400160405280600681526020017f4672656e6368000000000000000000000000000000000000000000000000000081525081526020016040518060400160405280600781526020017f4974616c69616e0000000000000000000000000000000000000000000000000081525081526020016040518060400160405280600781526020017f456e676c6973680000000000000000000000000000000000000000000000000081525081526020016040518060400160405280600781526020017f5370616e6973680000000000000000000000000000000000000000000000000081525081526020016040518060400160405280600681526020017f4765726d616e000000000000000000000000000000000000000000000000000081525081526020016040518060400160405280600881526020017f417573747269616e00000000000000000000000000000000000000000000000081525081526020016040518060400160405280600a81526020017f506f72747567756573650000000000000000000000000000000000000000000081525081526020016040518060400160405280600781526020017f42656c6769756d0000000000000000000000000000000000000000000000000081525081526020016040518060400160405280600581526020017f447574636800000000000000000000000000000000000000000000000000000081525081526020016040518060400160405280600581526020017f537769737300000000000000000000000000000000000000000000000000000081525081526020016040518060400160405280600681526020017f44616e697368000000000000000000000000000000000000000000000000000081525081526020016040518060400160405280600781526020017f537765646973680000000000000000000000000000000000000000000000000081525081526020016040518060400160405280600a81526020017f4c69746875616e69616e0000000000000000000000000000000000000000000081525081526020016040518060400160405280600881526020017f4573746f6e69616e00000000000000000000000000000000000000000000000081525081526020016040518060400160405280600981526020017f48756e67617269616e000000000000000000000000000000000000000000000081525081526020016040518060400160405280600681526020017f506f6c697368000000000000000000000000000000000000000000000000000081525081526020016040518060400160405280600981526020017f556b7261696e69616e000000000000000000000000000000000000000000000081525081526020016040518060400160405280600981526020017f536c6f76656e69616e000000000000000000000000000000000000000000000081525081525060089060126200047b92919062001069565b506040518061026001604052806040518060400160405280600a81526020017f50726f6772616d6d65720000000000000000000000000000000000000000000081525081526020016040518060400160405280600781526020017f506f6c697469630000000000000000000000000000000000000000000000000081525081526020016040518060400160405280600481526020017f436f6f6b0000000000000000000000000000000000000000000000000000000081525081526020016040518060400160405280600881526020017f44657369676e657200000000000000000000000000000000000000000000000081525081526020016040518060400160405280600781526020017f4d616e616765720000000000000000000000000000000000000000000000000081525081526020016040518060400160405280600381526020017f43454f000000000000000000000000000000000000000000000000000000000081525081526020016040518060400160405280600381526020017f43544f000000000000000000000000000000000000000000000000000000000081525081526020016040518060400160405280600681526020017f53696e676572000000000000000000000000000000000000000000000000000081525081526020016040518060400160405280600881526020017f53747265616d657200000000000000000000000000000000000000000000000081525081526020016040518060400160405280600881526020017f4d7573696369616e00000000000000000000000000000000000000000000000081525081526020016040518060400160405280600581526020017f446567656e00000000000000000000000000000000000000000000000000000081525081526020016040518060400160405280600681526020017f577269746572000000000000000000000000000000000000000000000000000081525081526020016040518060400160405280600a81526020017f4a6f75726e616c6973740000000000000000000000000000000000000000000081525081526020016040518060400160405280600a81526020017f496e666c75656e6365720000000000000000000000000000000000000000000081525081526020016040518060400160405280600481526020017f506f70650000000000000000000000000000000000000000000000000000000081525081526020016040518060400160405280600781526020017f436173686965720000000000000000000000000000000000000000000000000081525081526020016040518060400160405280600781526020017f53747564656e740000000000000000000000000000000000000000000000000081525081526020016040518060400160405280600581526020017f42616b657200000000000000000000000000000000000000000000000000000081525081526020016040518060400160405280600781526020017f42757463686572000000000000000000000000000000000000000000000000008152508152506009906013620008f9929190620010d0565b50604051806102c001604052806040518060400160405280600581526020017f4e696e6a6100000000000000000000000000000000000000000000000000000081525081526020016040518060400160405280600881526020017f526f636b7374617200000000000000000000000000000000000000000000000081525081526020016040518060400160405280600681526020017f4f6166697368000000000000000000000000000000000000000000000000000081525081526020016040518060400160405280600681526020017f5468656f7279000000000000000000000000000000000000000000000000000081525081526020016040518060400160405280600781526020017f416e6369656e740000000000000000000000000000000000000000000000000081525081526020016040518060400160405280600581526020017f4368616c6b00000000000000000000000000000000000000000000000000000081525081526020016040518060400160405280600481526020017f4e6963650000000000000000000000000000000000000000000000000000000081525081526020016040518060400160405280600481526020017f546f61640000000000000000000000000000000000000000000000000000000081525081526020016040518060400160405280600581526020017f4d696e6f7200000000000000000000000000000000000000000000000000000081525081526020016040518060400160405280600481526020017f437572650000000000000000000000000000000000000000000000000000000081525081526020016040518060400160405280600381526020017f48756d000000000000000000000000000000000000000000000000000000000081525081526020016040518060400160405280600481526020017f466f6f6c0000000000000000000000000000000000000000000000000000000081525081526020016040518060400160405280600881526020017f436f6e736964657200000000000000000000000000000000000000000000000081525081526020016040518060400160405280600581526020017f4a65616e7300000000000000000000000000000000000000000000000000000081525081526020016040518060400160405280600581526020017f577265636b00000000000000000000000000000000000000000000000000000081525081526020016040518060400160405280600681526020017f4d61726b6574000000000000000000000000000000000000000000000000000081525081526020016040518060400160405280600981526020017f4c756e6368726f6f6d000000000000000000000000000000000000000000000081525081526020016040518060400160405280600981526020017f4a75646963696f7573000000000000000000000000000000000000000000000081525081526020016040518060400160405280600881526020017f466c61776c65737300000000000000000000000000000000000000000000000081525081526020016040518060400160405280600581526020017f4177616b6500000000000000000000000000000000000000000000000000000081525081526020016040518060400160405280600881526020017f53756363696e637400000000000000000000000000000000000000000000000081525081526020016040518060400160405280600881526020017f536e6f6262697368000000000000000000000000000000000000000000000000815250815250600a90601662000e2892919062001137565b5034801562000e3657600080fd5b506040518060400160405280600881526020017f576f7264734e46540000000000000000000000000000000000000000000000008152506040518060400160405280600381526020017f5752440000000000000000000000000000000000000000000000000000000000815250816000908051906020019062000ebb92919062000fd8565b50806001908051906020019062000ed492919062000fd8565b50505062000f06604051806060016040528060238152602001620049536023913962000f0c60201b62000d381760201c565b62001358565b62000fac8160405160240162000f2391906200126c565b6040516020818303038152906040527f41304fac000000000000000000000000000000000000000000000000000000007bffffffffffffffffffffffffffffffffffffffffffffffffffffffff19166020820180517bffffffffffffffffffffffffffffffffffffffffffffffffffffffff838183161783525050505062000faf60201b60201c565b50565b60008151905060006a636f6e736f6c652e6c6f679050602083016000808483855afa5050505050565b82805462000fe690620012e2565b90600052602060002090601f0160209004810192826200100a576000855562001056565b82601f106200102557805160ff191683800117855562001056565b8280016001018555821562001056579182015b828111156200105557825182559160200191906001019062001038565b5b5090506200106591906200119e565b5090565b828054828255906000526020600020908101928215620010bd579160200282015b82811115620010bc578251829080519060200190620010ab92919062000fd8565b50916020019190600101906200108a565b5b509050620010cc9190620011bd565b5090565b82805482825590600052602060002090810192821562001124579160200282015b82811115620011235782518290805190602001906200111292919062000fd8565b5091602001919060010190620010f1565b5b509050620011339190620011bd565b5090565b8280548282559060005260206000209081019282156200118b579160200282015b828111156200118a5782518290805190602001906200117992919062000fd8565b509160200191906001019062001158565b5b5090506200119a9190620011bd565b5090565b5b80821115620011b95760008160009055506001016200119f565b5090565b5b80821115620011e15760008181620011d79190620011e5565b50600101620011be565b5090565b508054620011f390620012e2565b6000825580601f1062001207575062001228565b601f0160209004906000526020600020908101906200122791906200119e565b5b50565b6000620012388262001290565b6200124481856200129b565b935062001256818560208601620012ac565b620012618162001347565b840191505092915050565b600060208201905081810360008301526200128881846200122b565b905092915050565b600081519050919050565b600082825260208201905092915050565b60005b83811015620012cc578082015181840152602081019050620012af565b83811115620012dc576000848401525b50505050565b60006002820490506001821680620012fb57607f821691505b6020821081141562001312576200131162001318565b5b50919050565b7f4e487b7100000000000000000000000000000000000000000000000000000000600052602260045260246000fd5b6000601f19601f8301169050919050565b6134ba80620013686000396000f3fe608060405234801561001057600080fd5b50600436106100ea5760003560e01c80636352211e1161008c578063a22cb46511610066578063a22cb46514610249578063b88d4fde14610265578063c87b56dd14610281578063e985e9c5146102b1576100ea565b80636352211e146101cb57806370a08231146101fb57806395d89b411461022b576100ea565b8063095ea7b3116100c8578063095ea7b31461016d57806314f710fe1461018957806323b872dd1461019357806342842e0e146101af576100ea565b806301ffc9a7146100ef57806306fdde031461011f578063081812fc1461013d575b600080fd5b610109600480360381019061010491906121d2565b6102e1565b6040516101169190612d30565b60405180910390f35b6101276103c3565b6040516101349190612d4b565b60405180910390f35b61015760048036038101906101529190612224565b610455565b6040516101649190612ca0565b60405180910390f35b61018760048036038101906101829190612196565b6104da565b005b6101916105f2565b005b6101ad60048036038101906101a89190612090565b6106f3565b005b6101c960048036038101906101c49190612090565b610753565b005b6101e560048036038101906101e09190612224565b610773565b6040516101f29190612ca0565b60405180910390f35b6102156004803603810190610210919061202b565b610825565b6040516102229190612fab565b60405180910390f35b6102336108dd565b6040516102409190612d4b565b60405180910390f35b610263600480360381019061025e919061215a565b61096f565b005b61027f600480360381019061027a91906120df565b610af0565b005b61029b60048036038101906102969190612224565b610b52565b6040516102a89190612d4b565b60405180910390f35b6102cb60048036038101906102c69190612054565b610ca4565b6040516102d89190612d30565b60405180910390f35b60007f80ac58cd000000000000000000000000000000000000000000000000000000007bffffffffffffffffffffffffffffffffffffffffffffffffffffffff1916827bffffffffffffffffffffffffffffffffffffffffffffffffffffffff191614806103ac57507f5b5e139f000000000000000000000000000000000000000000000000000000007bffffffffffffffffffffffffffffffffffffffffffffffffffffffff1916827bffffffffffffffffffffffffffffffffffffffffffffffffffffffff1916145b806103bc57506103bb82610dd1565b5b9050919050565b6060600080546103d29061324a565b80601f01602080910402602001604051908101604052809291908181526020018280546103fe9061324a565b801561044b5780601f106104205761010080835404028352916020019161044b565b820191906000526020600020905b81548152906001019060200180831161042e57829003601f168201915b5050505050905090565b600061046082610e3b565b61049f576040517f08c379a000000000000000000000000000000000000000000000000000000000815260040161049690612f0b565b60405180910390fd5b6004600083815260200190815260200160002060009054906101000a900473ffffffffffffffffffffffffffffffffffffffff169050919050565b60006104e582610773565b90508073ffffffffffffffffffffffffffffffffffffffff168373ffffffffffffffffffffffffffffffffffffffff161415610556576040517f08c379a000000000000000000000000000000000000000000000000000000000815260040161054d90612f6b565b60405180910390fd5b8073ffffffffffffffffffffffffffffffffffffffff16610575610ea7565b73ffffffffffffffffffffffffffffffffffffffff1614806105a457506105a38161059e610ea7565b610ca4565b5b6105e3576040517f08c379a00000000000000000000000000000000000000000000000000000000081526004016105da90612e4b565b60405180910390fd5b6105ed8383610eaf565b505050565b60006105fe600b610f68565b9050600061060b82610f76565b90506000600782604051602001610623929190612bb7565b604051602081830303815290604052905061063d81610d38565b6000610649828461113b565b6040516020016106599190612c7e565b604051602081830303815290604052905061067381610d38565b61067d338561119c565b61068784826111ba565b7f37218005c76b3ebd76b8d48bb5c97106dcf4775fbc527bb5a22fe900d5797c7133856040516106b8929190612d07565b60405180910390a16106e360405180606001604052806025815260200161342060259139853361122e565b6106ed600b6112cd565b50505050565b6107046106fe610ea7565b826112e3565b610743576040517f08c379a000000000000000000000000000000000000000000000000000000000815260040161073a90612f8b565b60405180910390fd5b61074e8383836113c1565b505050565b61076e83838360405180602001604052806000815250610af0565b505050565b6000806002600084815260200190815260200160002060009054906101000a900473ffffffffffffffffffffffffffffffffffffffff169050600073ffffffffffffffffffffffffffffffffffffffff168173ffffffffffffffffffffffffffffffffffffffff16141561081c576040517f08c379a000000000000000000000000000000000000000000000000000000000815260040161081390612e8b565b60405180910390fd5b80915050919050565b60008073ffffffffffffffffffffffffffffffffffffffff168273ffffffffffffffffffffffffffffffffffffffff161415610896576040517f08c379a000000000000000000000000000000000000000000000000000000000815260040161088d90612e6b565b60405180910390fd5b600360008373ffffffffffffffffffffffffffffffffffffffff1673ffffffffffffffffffffffffffffffffffffffff168152602001908152602001600020549050919050565b6060600180546108ec9061324a565b80601f01602080910402602001604051908101604052809291908181526020018280546109189061324a565b80156109655780601f1061093a57610100808354040283529160200191610965565b820191906000526020600020905b81548152906001019060200180831161094857829003601f168201915b5050505050905090565b610977610ea7565b73ffffffffffffffffffffffffffffffffffffffff168273ffffffffffffffffffffffffffffffffffffffff1614156109e5576040517f08c379a00000000000000000000000000000000000000000000000000000000081526004016109dc90612e0b565b60405180910390fd5b80600560006109f2610ea7565b73ffffffffffffffffffffffffffffffffffffffff1673ffffffffffffffffffffffffffffffffffffffff16815260200190815260200160002060008473ffffffffffffffffffffffffffffffffffffffff1673ffffffffffffffffffffffffffffffffffffffff16815260200190815260200160002060006101000a81548160ff0219169083151502179055508173ffffffffffffffffffffffffffffffffffffffff16610a9f610ea7565b73ffffffffffffffffffffffffffffffffffffffff167f17307eab39ab6107e8899845ad3d59bd9653f200f220920489ca2b5937696c3183604051610ae49190612d30565b60405180910390a35050565b610b01610afb610ea7565b836112e3565b610b40576040517f08c379a0000000000000000000000000000000000000000000000000000000008152600401610b3790612f8b565b60405180910390fd5b610b4c8484848461161d565b50505050565b6060610b5d82610e3b565b610b9c576040517f08c379a0000000000000000000000000000000000000000000000000000000008152600401610b9390612eeb565b60405180910390fd5b6000600660008481526020019081526020016000208054610bbc9061324a565b80601f0160208091040260200160405190810160405280929190818152602001828054610be89061324a565b8015610c355780601f10610c0a57610100808354040283529160200191610c35565b820191906000526020600020905b815481529060010190602001808311610c1857829003601f168201915b505050505090506000610c46611679565b9050600081511415610c5c578192505050610c9f565b600082511115610c91578082604051602001610c79929190612b93565b60405160208183030381529060405292505050610c9f565b610c9a84611690565b925050505b919050565b6000600560008473ffffffffffffffffffffffffffffffffffffffff1673ffffffffffffffffffffffffffffffffffffffff16815260200190815260200160002060008373ffffffffffffffffffffffffffffffffffffffff1673ffffffffffffffffffffffffffffffffffffffff16815260200190815260200160002060009054906101000a900460ff16905092915050565b610dce81604051602401610d4c9190612d4b565b6040516020818303038152906040527f41304fac000000000000000000000000000000000000000000000000000000007bffffffffffffffffffffffffffffffffffffffffffffffffffffffff19166020820180517bffffffffffffffffffffffffffffffffffffffffffffffffffffffff8381831617835250505050611737565b50565b60007f01ffc9a7000000000000000000000000000000000000000000000000000000007bffffffffffffffffffffffffffffffffffffffffffffffffffffffff1916827bffffffffffffffffffffffffffffffffffffffffffffffffffffffff1916149050919050565b60008073ffffffffffffffffffffffffffffffffffffffff166002600084815260200190815260200160002060009054906101000a900473ffffffffffffffffffffffffffffffffffffffff1673ffffffffffffffffffffffffffffffffffffffff1614159050919050565b600033905090565b816004600083815260200190815260200160002060006101000a81548173ffffffffffffffffffffffffffffffffffffffff021916908373ffffffffffffffffffffffffffffffffffffffff160217905550808273ffffffffffffffffffffffffffffffffffffffff16610f2283610773565b73ffffffffffffffffffffffffffffffffffffffff167f8c5be1e5ebec7d5bd14f71427d1e84f3dd0314c0f7b2291e5b200ac8c7c3b92560405160405180910390a45050565b600081600001549050919050565b60606000600880549050610fb0610f8c85611760565b604051602001610f9c9190612c5c565b60405160208183030381529060405261190d565b610fba91906132c5565b90506000600980549050610ff4610fd086611760565b604051602001610fe09190612c5c565b60405160208183030381529060405261190d565b610ffe91906132c5565b90506000600a8054905061103861101487611760565b6040516020016110249190612c5c565b60405160208183030381529060405261190d565b61104291906132c5565b90506008838154811061107e577f4e487b7100000000000000000000000000000000000000000000000000000000600052603260045260246000fd5b90600052602060002001600983815481106110c2577f4e487b7100000000000000000000000000000000000000000000000000000000600052603260045260246000fd5b90600052602060002001600a8381548110611106577f4e487b7100000000000000000000000000000000000000000000000000000000600052603260045260246000fd5b9060005260206000200160405160200161112293929190612be6565b6040516020818303038152906040529350505050919050565b60606000611190836040516020016111539190612b7c565b60405160208183030381529060405261116b86611940565b60405160200161117c929190612c17565b604051602081830303815290604052611940565b90508091505092915050565b6111b6828260405180602001604052806000815250611adf565b5050565b6111c382610e3b565b611202576040517f08c379a00000000000000000000000000000000000000000000000000000000081526004016111f990612eab565b60405180910390fd5b80600660008481526020019081526020016000209080519060200190611229929190611eb7565b505050565b6112c883838360405160240161124693929190612d6d565b6040516020818303038152906040527fe3849f79000000000000000000000000000000000000000000000000000000007bffffffffffffffffffffffffffffffffffffffffffffffffffffffff19166020820180517bffffffffffffffffffffffffffffffffffffffffffffffffffffffff8381831617835250505050611737565b505050565b6001816000016000828254019250508190555050565b60006112ee82610e3b565b61132d576040517f08c379a000000000000000000000000000000000000000000000000000000000815260040161132490612e2b565b60405180910390fd5b600061133883610773565b90508073ffffffffffffffffffffffffffffffffffffffff168473ffffffffffffffffffffffffffffffffffffffff1614806113a757508373ffffffffffffffffffffffffffffffffffffffff1661138f84610455565b73ffffffffffffffffffffffffffffffffffffffff16145b806113b857506113b78185610ca4565b5b91505092915050565b8273ffffffffffffffffffffffffffffffffffffffff166113e182610773565b73ffffffffffffffffffffffffffffffffffffffff1614611437576040517f08c379a000000000000000000000000000000000000000000000000000000000815260040161142e90612f2b565b60405180910390fd5b600073ffffffffffffffffffffffffffffffffffffffff168273ffffffffffffffffffffffffffffffffffffffff1614156114a7576040517f08c379a000000000000000000000000000000000000000000000000000000000815260040161149e90612deb565b60405180910390fd5b6114b2838383611b3a565b6114bd600082610eaf565b6001600360008573ffffffffffffffffffffffffffffffffffffffff1673ffffffffffffffffffffffffffffffffffffffff168152602001908152602001600020600082825461150d9190613160565b925050819055506001600360008473ffffffffffffffffffffffffffffffffffffffff1673ffffffffffffffffffffffffffffffffffffffff1681526020019081526020016000206000828254611564919061307f565b92505081905550816002600083815260200190815260200160002060006101000a81548173ffffffffffffffffffffffffffffffffffffffff021916908373ffffffffffffffffffffffffffffffffffffffff160217905550808273ffffffffffffffffffffffffffffffffffffffff168473ffffffffffffffffffffffffffffffffffffffff167fddf252ad1be2c89b69c2b068fc378daa952ba7f163c4a11628f55a4df523b3ef60405160405180910390a4505050565b6116288484846113c1565b61163484848484611b3f565b611673576040517f08c379a000000000000000000000000000000000000000000000000000000000815260040161166a90612dab565b60405180910390fd5b50505050565b606060405180602001604052806000815250905090565b606061169b82610e3b565b6116da576040517f08c379a00000000000000000000000000000000000000000000000000000000081526004016116d190612f4b565b60405180910390fd5b60006116e4611679565b90506000815111611704576040518060200160405280600081525061172f565b8061170e84611760565b60405160200161171f929190612b93565b6040516020818303038152906040525b915050919050565b60008151905060006a636f6e736f6c652e6c6f679050602083016000808483855afa5050505050565b606060008214156117a8576040518060400160405280600181526020017f30000000000000000000000000000000000000000000000000000000000000008152509050611908565b600082905060005b600082146117da5780806117c39061327c565b915050600a826117d391906130d5565b91506117b0565b60008167ffffffffffffffff81111561181c577f4e487b7100000000000000000000000000000000000000000000000000000000600052604160045260246000fd5b6040519080825280601f01601f19166020018201604052801561184e5781602001600182028036833780820191505090505b5090505b60008514611901576001826118679190613160565b9150600a8561187691906132c5565b6030611882919061307f565b60f81b8183815181106118be577f4e487b7100000000000000000000000000000000000000000000000000000000600052603260045260246000fd5b60200101907effffffffffffffffffffffffffffffffffffffffffffffffffffffffffffff1916908160001a905350600a856118fa91906130d5565b9450611852565b8093505050505b919050565b6000816040516020016119209190612b7c565b6040516020818303038152906040528051906020012060001c9050919050565b606060008251141561196357604051806020016040528060008152509050611ada565b60006040518060600160405280604081526020016134456040913990506000600360028551611992919061307f565b61199c91906130d5565b60046119a89190613106565b905060006020826119b9919061307f565b67ffffffffffffffff8111156119f8577f4e487b7100000000000000000000000000000000000000000000000000000000600052604160045260246000fd5b6040519080825280601f01601f191660200182016040528015611a2a5781602001600182028036833780820191505090505b509050818152600183018586518101602084015b81831015611a99576003830192508251603f8160121c168501518253600182019150603f81600c1c168501518253600182019150603f8160061c168501518253600182019150603f8116850151825360018201915050611a3e565b600389510660018114611ab35760028114611ac357611ace565b613d3d60f01b6002830352611ace565b603d60f81b60018303525b50505050508093505050505b919050565b611ae98383611cd6565b611af66000848484611b3f565b611b35576040517f08c379a0000000000000000000000000000000000000000000000000000000008152600401611b2c90612dab565b60405180910390fd5b505050565b505050565b6000611b608473ffffffffffffffffffffffffffffffffffffffff16611ea4565b15611cc9578373ffffffffffffffffffffffffffffffffffffffff1663150b7a02611b89610ea7565b8786866040518563ffffffff1660e01b8152600401611bab9493929190612cbb565b602060405180830381600087803b158015611bc557600080fd5b505af1925050508015611bf657506040513d601f19601f82011682018060405250810190611bf391906121fb565b60015b611c79573d8060008114611c26576040519150601f19603f3d011682016040523d82523d6000602084013e611c2b565b606091505b50600081511415611c71576040517f08c379a0000000000000000000000000000000000000000000000000000000008152600401611c6890612dab565b60405180910390fd5b805181602001fd5b63150b7a0260e01b7bffffffffffffffffffffffffffffffffffffffffffffffffffffffff1916817bffffffffffffffffffffffffffffffffffffffffffffffffffffffff191614915050611cce565b600190505b949350505050565b600073ffffffffffffffffffffffffffffffffffffffff168273ffffffffffffffffffffffffffffffffffffffff161415611d46576040517f08c379a0000000000000000000000000000000000000000000000000000000008152600401611d3d90612ecb565b60405180910390fd5b611d4f81610e3b565b15611d8f576040517f08c379a0000000000000000000000000000000000000000000000000000000008152600401611d8690612dcb565b60405180910390fd5b611d9b60008383611b3a565b6001600360008473ffffffffffffffffffffffffffffffffffffffff1673ffffffffffffffffffffffffffffffffffffffff1681526020019081526020016000206000828254611deb919061307f565b92505081905550816002600083815260200190815260200160002060006101000a81548173ffffffffffffffffffffffffffffffffffffffff021916908373ffffffffffffffffffffffffffffffffffffffff160217905550808273ffffffffffffffffffffffffffffffffffffffff16600073ffffffffffffffffffffffffffffffffffffffff167fddf252ad1be2c89b69c2b068fc378daa952ba7f163c4a11628f55a4df523b3ef60405160405180910390a45050565b600080823b905060008111915050919050565b828054611ec39061324a565b90600052602060002090601f016020900481019282611ee55760008555611f2c565b82601f10611efe57805160ff1916838001178555611f2c565b82800160010185558215611f2c579182015b82811115611f2b578251825591602001919060010190611f10565b5b509050611f399190611f3d565b5090565b5b80821115611f56576000816000905550600101611f3e565b5090565b6000611f6d611f6884612ff7565b612fc6565b905082815260208101848484011115611f8557600080fd5b611f90848285613208565b509392505050565b600081359050611fa7816133c3565b92915050565b600081359050611fbc816133da565b92915050565b600081359050611fd1816133f1565b92915050565b600081519050611fe6816133f1565b92915050565b600082601f830112611ffd57600080fd5b813561200d848260208601611f5a565b91505092915050565b60008135905061202581613408565b92915050565b60006020828403121561203d57600080fd5b600061204b84828501611f98565b91505092915050565b6000806040838503121561206757600080fd5b600061207585828601611f98565b925050602061208685828601611f98565b9150509250929050565b6000806000606084860312156120a557600080fd5b60006120b386828701611f98565b93505060206120c486828701611f98565b92505060406120d586828701612016565b9150509250925092565b600080600080608085870312156120f557600080fd5b600061210387828801611f98565b945050602061211487828801611f98565b935050604061212587828801612016565b925050606085013567ffffffffffffffff81111561214257600080fd5b61214e87828801611fec565b91505092959194509250565b6000806040838503121561216d57600080fd5b600061217b85828601611f98565b925050602061218c85828601611fad565b9150509250929050565b600080604083850312156121a957600080fd5b60006121b785828601611f98565b92505060206121c885828601612016565b9150509250929050565b6000602082840312156121e457600080fd5b60006121f284828501611fc2565b91505092915050565b60006020828403121561220d57600080fd5b600061221b84828501611fd7565b91505092915050565b60006020828403121561223657600080fd5b600061224484828501612016565b91505092915050565b61225681613194565b82525050565b612265816131a6565b82525050565b60006122768261303c565b6122808185613052565b9350612290818560208601613217565b612299816133b2565b840191505092915050565b60006122af82613047565b6122b98185613063565b93506122c9818560208601613217565b6122d2816133b2565b840191505092915050565b60006122e882613047565b6122f28185613074565b9350612302818560208601613217565b80840191505092915050565b6000815461231b8161324a565b6123258186613074565b94506001821660008114612340576001811461235157612384565b60ff19831686528186019350612384565b61235a85613027565b60005b8381101561237c5781548189015260018201915060208101905061235d565b838801955050505b50505092915050565b600061239a603283613063565b91507f4552433732313a207472616e7366657220746f206e6f6e20455243373231526560008301527f63656976657220696d706c656d656e74657200000000000000000000000000006020830152604082019050919050565b6000612400601c83613063565b91507f4552433732313a20746f6b656e20616c7265616479206d696e746564000000006000830152602082019050919050565b6000612440602483613063565b91507f4552433732313a207472616e7366657220746f20746865207a65726f2061646460008301527f72657373000000000000000000000000000000000000000000000000000000006020830152604082019050919050565b60006124a6601983613063565b91507f4552433732313a20617070726f766520746f2063616c6c6572000000000000006000830152602082019050919050565b60006124e6602c83613063565b91507f4552433732313a206f70657261746f7220717565727920666f72206e6f6e657860008301527f697374656e7420746f6b656e00000000000000000000000000000000000000006020830152604082019050919050565b600061254c600d83613074565b91507f3c2f746578743e3c2f7376673e000000000000000000000000000000000000006000830152600d82019050919050565b600061258c603883613063565b91507f4552433732313a20617070726f76652063616c6c6572206973206e6f74206f7760008301527f6e6572206e6f7220617070726f76656420666f7220616c6c00000000000000006020830152604082019050919050565b60006125f2602a83613063565b91507f4552433732313a2062616c616e636520717565727920666f7220746865207a6560008301527f726f2061646472657373000000000000000000000000000000000000000000006020830152604082019050919050565b6000612658602983613063565b91507f4552433732313a206f776e657220717565727920666f72206e6f6e657869737460008301527f656e7420746f6b656e00000000000000000000000000000000000000000000006020830152604082019050919050565b60006126be602e83613063565b91507f45524337323155524953746f726167653a2055524920736574206f66206e6f6e60008301527f6578697374656e7420746f6b656e0000000000000000000000000000000000006020830152604082019050919050565b6000612724606483613074565b91507f222c20226465736372697074696f6e223a20225468657365206772657920737160008301527f7561726573206172652070726574747920636f6f6c2c2072696768743f222c2060208301527f22696d616765223a2022646174613a696d6167652f7376672b786d6c3b62617360408301527f6536342c000000000000000000000000000000000000000000000000000000006060830152606482019050919050565b60006127d6600283613074565b91507f227d0000000000000000000000000000000000000000000000000000000000006000830152600282019050919050565b6000612816602083613063565b91507f4552433732313a206d696e7420746f20746865207a65726f20616464726573736000830152602082019050919050565b6000612856603183613063565b91507f45524337323155524953746f726167653a2055524920717565727920666f722060008301527f6e6f6e6578697374656e7420746f6b656e0000000000000000000000000000006020830152604082019050919050565b60006128bc602c83613063565b91507f4552433732313a20617070726f76656420717565727920666f72206e6f6e657860008301527f697374656e7420746f6b656e00000000000000000000000000000000000000006020830152604082019050919050565b6000612922602983613063565b91507f4552433732313a207472616e73666572206f6620746f6b656e2074686174206960008301527f73206e6f74206f776e00000000000000000000000000000000000000000000006020830152604082019050919050565b6000612988602f83613063565b91507f4552433732314d657461646174613a2055524920717565727920666f72206e6f60008301527f6e6578697374656e7420746f6b656e00000000000000000000000000000000006020830152604082019050919050565b60006129ee600a83613074565b91507f7b226e616d65223a2022000000000000000000000000000000000000000000006000830152600a82019050919050565b6000612a2e602183613063565b91507f4552433732313a20617070726f76616c20746f2063757272656e74206f776e6560008301527f72000000000000000000000000000000000000000000000000000000000000006020830152604082019050919050565b6000612a94600a83613074565b91507f46495253545f574f5244000000000000000000000000000000000000000000006000830152600a82019050919050565b6000612ad4601d83613074565b91507f646174613a6170706c69636174696f6e2f6a736f6e3b6261736536342c0000006000830152601d82019050919050565b6000612b14603183613063565b91507f4552433732313a207472616e736665722063616c6c6572206973206e6f74206f60008301527f776e6572206e6f7220617070726f7665640000000000000000000000000000006020830152604082019050919050565b612b76816131fe565b82525050565b6000612b8882846122dd565b915081905092915050565b6000612b9f82856122dd565b9150612bab82846122dd565b91508190509392505050565b6000612bc3828561230e565b9150612bcf82846122dd565b9150612bda8261253f565b91508190509392505050565b6000612bf2828661230e565b9150612bfe828561230e565b9150612c0a828461230e565b9150819050949350505050565b6000612c22826129e1565b9150612c2e82856122dd565b9150612c3982612717565b9150612c4582846122dd565b9150612c50826127c9565b91508190509392505050565b6000612c6782612a87565b9150612c7382846122dd565b915081905092915050565b6000612c8982612ac7565b9150612c9582846122dd565b915081905092915050565b6000602082019050612cb5600083018461224d565b92915050565b6000608082019050612cd0600083018761224d565b612cdd602083018661224d565b612cea6040830185612b6d565b8181036060830152612cfc818461226b565b905095945050505050565b6000604082019050612d1c600083018561224d565b612d296020830184612b6d565b9392505050565b6000602082019050612d45600083018461225c565b92915050565b60006020820190508181036000830152612d6581846122a4565b905092915050565b60006060820190508181036000830152612d8781866122a4565b9050612d966020830185612b6d565b612da3604083018461224d565b949350505050565b60006020820190508181036000830152612dc48161238d565b9050919050565b60006020820190508181036000830152612de4816123f3565b9050919050565b60006020820190508181036000830152612e0481612433565b9050919050565b60006020820190508181036000830152612e2481612499565b9050919050565b60006020820190508181036000830152612e44816124d9565b9050919050565b60006020820190508181036000830152612e648161257f565b9050919050565b60006020820190508181036000830152612e84816125e5565b9050919050565b60006020820190508181036000830152612ea48161264b565b9050919050565b60006020820190508181036000830152612ec4816126b1565b9050919050565b60006020820190508181036000830152612ee481612809565b9050919050565b60006020820190508181036000830152612f0481612849565b9050919050565b60006020820190508181036000830152612f24816128af565b9050919050565b60006020820190508181036000830152612f4481612915565b9050919050565b60006020820190508181036000830152612f648161297b565b9050919050565b60006020820190508181036000830152612f8481612a21565b9050919050565b60006020820190508181036000830152612fa481612b07565b9050919050565b6000602082019050612fc06000830184612b6d565b92915050565b6000604051905081810181811067ffffffffffffffff82111715612fed57612fec613383565b5b8060405250919050565b600067ffffffffffffffff82111561301257613011613383565b5b601f19601f8301169050602081019050919050565b60008190508160005260206000209050919050565b600081519050919050565b600081519050919050565b600082825260208201905092915050565b600082825260208201905092915050565b600081905092915050565b600061308a826131fe565b9150613095836131fe565b9250827fffffffffffffffffffffffffffffffffffffffffffffffffffffffffffffffff038211156130ca576130c96132f6565b5b828201905092915050565b60006130e0826131fe565b91506130eb836131fe565b9250826130fb576130fa613325565b5b828204905092915050565b6000613111826131fe565b915061311c836131fe565b9250817fffffffffffffffffffffffffffffffffffffffffffffffffffffffffffffffff0483118215151615613155576131546132f6565b5b828202905092915050565b600061316b826131fe565b9150613176836131fe565b925082821015613189576131886132f6565b5b828203905092915050565b600061319f826131de565b9050919050565b60008115159050919050565b60007fffffffff0000000000000000000000000000000000000000000000000000000082169050919050565b600073ffffffffffffffffffffffffffffffffffffffff82169050919050565b6000819050919050565b82818337600083830152505050565b60005b8381101561323557808201518184015260208101905061321a565b83811115613244576000848401525b50505050565b6000600282049050600182168061326257607f821691505b6020821081141561327657613275613354565b5b50919050565b6000613287826131fe565b91507fffffffffffffffffffffffffffffffffffffffffffffffffffffffffffffffff8214156132ba576132b96132f6565b5b600182019050919050565b60006132d0826131fe565b91506132db836131fe565b9250826132eb576132ea613325565b5b828206905092915050565b7f4e487b7100000000000000000000000000000000000000000000000000000000600052601160045260246000fd5b7f4e487b7100000000000000000000000000000000000000000000000000000000600052601260045260246000fd5b7f4e487b7100000000000000000000000000000000000000000000000000000000600052602260045260246000fd5b7f4e487b7100000000000000000000000000000000000000000000000000000000600052604160045260246000fd5b6000601f19601f8301169050919050565b6133cc81613194565b81146133d757600080fd5b50565b6133e3816131a6565b81146133ee57600080fd5b50565b6133fa816131b2565b811461340557600080fd5b50565b613411816131fe565b811461341c57600080fd5b5056fe416e204e465420772f20494420257320686173206265656e206d696e74656420746f2025734142434445464748494a4b4c4d4e4f505152535455565758595a6162636465666768696a6b6c6d6e6f707172737475767778797a303132333435363738392b2fa2646970667358221220bd15811324dbcaa94388edc8c4ab74aa2e1b0b8fc5722605a66337207e1f8b1464736f6c634300080000333c73766720786d6c6e733d27687474703a2f2f7777772e77332e6f72672f323030302f73766727207072657365727665417370656374526174696f3d27784d696e594d696e206d656574272076696577426f783d273020302033353020333530273e3c7374796c653e2e62617365207b2066696c6c3a2077686974653b20666f6e742d66616d696c793a2073657269663b20666f6e742d73697a653a20323470783b207d3c2f7374796c653e3c726563742077696474683d273130302527206865696768743d2731303025272066696c6c3d272336363636363627202f3e3c7465787420783d273530252720793d273530252720636c6173733d27626173652720646f6d696e616e742d626173656c696e653d276d6964646c652720746578742d616e63686f723d276d6964646c65273e5468697320636f6e74726163742077696c6c206d696e742061204e46542c20776f7721",
    "linkReferences": {},
    "deployedLinkReferences": {}
}